:020000040000FA
:100000000C9462000C948A000C948A000C948A0070
:100010000C948A000C948A000C948A000C948A0038
:100020000C94A4060C948A000C948A000C948A0008
:100030000C948A000C948A000C948A000C948A0018
:100040000C9402060C948A000C9472060C944C06D4
:100050000C948A000C948A000C948A000C948A00F8
:100060000C948A000C948A000000000024002700F1
:100070002A0000000000250028002B0000000008D6
:10008000000201000003040700000000000000005F
:1000900000000000230026002900040404040404D6
:1000A0000404020202020202030303030303010227
:1000B00004081020408001020408102001020408F6
:1000C0001020A40711241FBECFEFD8E0DEBFCDBFA4
:1000D00023E0A4E2B2E001C01D92A43FB207E1F721
:1000E00012E0A0E0B1E0ECE4F3E202C005900D9272
:1000F000A432B107D9F710E0C2E6D0E004C02197DE
:10010000FE010E949E11C136D107C9F70E94DE0789
:100110000C94A4110C940000E091E703F091E80323
:10012000238534852817390728F48091E6038160F8
:100130008093E60308950F931F93CF93DF93E0918D
:10014000E703F091E80340913402828510E04817FC
:1001500008F064C0142F11700091330201114FC0D8
:10016000842F90E0880F991FE80FF91F0384F4850E
:10017000E02D2CEE3FEF112311F024E130E0C0918F
:100180003102D09132022C0F3D1FC90163E470E0AF
:100190000E947611E617F70760F0C90168E270E087
:1001A0000E9476116F5F7F4F81E090E06E177F07AE
:1001B00010F52C0F3D1FC90163E470E00E94761119
:1001C000E617F70750F0C90168E270E00E94761167
:1001D0006F5F7F4F6E177F0760F42C0F3D1FC901C3
:1001E00063E470E00E947611E617F707E8F41FEF6A
:1001F00015C082E090E09093300280932F020F5F51
:100200000093330280912F02909130020817190653
:1002100028F0109233024F5F40933402812FDF9118
:10022000CF911F910F910895C90168E270E00E947B
:1002300076116F5F7F4F6E177F07C8F283E090E003
:10024000DACF90E0FC01E458FF4F2491FC01E25525
:10025000FF4F3491FC01E656FF4FE491EE23C9F0C5
:10026000222339F0233001F1A8F4213019F1223092
:1002700029F1F0E0EE0FFF1FEE58FF4FA591B4916A
:100280008FB7F894EC91611126C030953E233C93D2
:100290008FBF08952730A9F02830C9F0243049F7DE
:1002A000809180008F7D03C0809180008F77809344
:1002B0008000DFCF84B58F7784BDDBCF84B58F7DA1
:1002C000FBCF8091B0008F778093B000D2CF809128
:1002D000B0008F7DF9CF3E2BDACFCF93DF9390E044
:1002E000FC01E255FF4F249186569F4FFC018491FB
:1002F0008823D1F090E0880F991FFC01E859FF4F47
:10030000A591B491FC01EE58FF4FC591D4916111B4
:100310000EC09FB7F8948C91E22FE0958E238C93BA
:100320002881E223E8839FBFDF91CF9108958FB7A3
:10033000F894EC91E22BEC938FBFF6CFA2EDB2E0F4
:1003400011968C931197282F30E0F901E255FF4F59
:10035000E4911496EC931497F901E656FF4FE4915B
:10036000F0E0EE0FFF1FE057FF4F259134911396F9
:100370003C932E93129760E00C946D01CF93DF9322
:10038000EC0161E085E00E946D01209731F460E0AE
:1003900085E0DF91CF910C942101CF3FD10511F47D
:1003A00061E0F6CFE1E8F0E0E491E33029F140F4D8
:1003B000E130B1F0E230D9F0C038D1058CF7E7CFA9
:1003C000E73021F1E83051F1E430B1F7809180005D
:1003D000806280938000D0938B00C0938A0004C019
:1003E00084B5806884BDC7BDDF91CF91089584B581
:1003F000806284BDC8BDF8CF809180008068809302
:100400008000D0938900C0938800EECF8091B00027
:1004100080688093B000C093B300E6CF8091B000B5
:1004200080628093B000C093B400DECF3FB7F894F1
:1004300080912B0290912C02A0912D02B0912E025E
:1004400026B5A89B05C02F3F19F00196A11DB11D2F
:100450003FBFBA2FA92F982F8827BC01CD01620F6B
:10046000711D811D911D42E0660F771F881F991F26
:100470004A95D1F70895AF92BF92CF92DF92EF9253
:10048000FF920F931F93CF93DF936C017B018B013E
:10049000040F151FEB015E01AE18BF08C017D1078E
:1004A00059F06991D601ED91FC910190F081E02D18
:1004B000C6010995892B79F7C501DF91CF911F916D
:1004C0000F91FF90EF90DF90CF90BF90AF90089585
:1004D000FC01538D448D252F30E0842F90E0821B4A
:1004E000930B541710F0CF96089501970895FC01CF
:1004F000918D828D981761F0A28DAE0FBF2FB11D27
:100500005D968C91928D9F5F9F73928F90E008957E
:100510008FEF9FEF0895FC01918D828D981731F038
:10052000828DE80FF11D858D90E008958FEF9FEF8C
:100530000895FC01918D228D892F90E0805C9F4F62
:10054000821B91098F739927089585E392E00E9499
:10055000990221E0892B09F420E0822F089580E0A0
:1005600090E0892B29F00E94A50281110C940000D3
:100570000895FC01A48DA80FB92FB11DA35ABF4F38
:100580002C91848D90E001968F739927848FA68992
:10059000B7892C93A089B1898C91837080648C93E6
:1005A000938D848D981306C00288F389E02D808195
:1005B0008F7D80830895EF92FF920F931F93CF93C7
:1005C000DF93EC0181E0888F9B8D8C8D98131AC08E
:1005D000E889F989808185FF15C09FB7F894EE8975
:1005E000FF896083E889F9898081837080648083D2
:1005F0009FBF81E090E0DF91CF911F910F91FF901D
:10060000EF900895F62E0B8D10E00F5F1F4F0F73C4
:100610001127E02E8C8D8E110CC00FB607FCFACF7F
:10062000E889F989808185FFF5CFCE010E94B90262
:10063000F1CFEB8DEC0FFD2FF11DE35AFF4FF08250
:100640009FB7F8940B8FEA89FB8980818062CFCFB6
:10065000CF93DF93EC01888D8823B9F0AA89BB89F9
:10066000E889F9898C9185FD03C0808186FD0DC0E4
:100670000FB607FCF7CF8C9185FFF2CF808185FF05
:10068000EDCFCE010E94B902E9CFDF91CF9108955D
:100690008F929F92AF92BF92CF92DF92EF92FF9292
:1006A0004B015C010E9416026B017C0124E0C21A1E
:1006B000D108E108F1080E9416026C197D098E0923
:1006C0009F09681579058A059B05A8F3FF90EF90AF
:1006D000DF90CF90BF90AF909F908F900895FC01D6
:1006E0009B0124513109C90163E470E00E94761135
:1006F000E617F70758F0C90168E270E00E9476112A
:100700006F5F7F4F81E06E177F0708F480E00895E8
:100710002F923F924F925F926F927F928F929F9211
:10072000AF92BF92CF92DF92EF92FF920F931F93FF
:10073000CF93DF93CDB7DEB72A970FB6F894DEBF1D
:100740000FBECDBF282E69875A013A8329833E2CDC
:100750009A012C5E3F4FC90163E470E00E9476115C
:1007600078876F83C90168E270E00E9476119B016F
:100770002F5F3F4F3E832D839985892F90E0880F0F
:10078000991F0B969A8789878091E7039091E803D8
:10079000E985FA85E80FF91FFA87E987412C512C82
:1007A00032014394C12CD12C7601222009F442C09D
:1007B00029813A81E985FA85A216B306D1F402802F
:1007C000F381E02DFC83EB83311017C0B8018B81DE
:1007D0009C810E946F03811123C0440C551C661C30
:1007E000771C2A9429853A852C5F3F4F3A872987C1
:1007F000DCCF80809180332049F0CC0CDD1CEE1CD6
:10080000FF1C29813A81A216B30601F38F819885D6
:100810008816990610F3ED81FE81E815F905E8F2D6
:10082000332019F06894C0F8D8CFC428D528E6281A
:10083000F728D3CFC092CC03D092CD03E092CE0361
:10084000F092CF0381E02A960FB6F894DEBF0FBE78
:10085000CDBFDF91CF911F910F91FF90EF90DF906F
:10086000CF90BF90AF909F908F907F906F905F9050
:100870004F903F902F900895EF920F931F93FC019C
:10088000862F642FEE24E3949785911101C0E12C0B
:100890000185128523853485478150850E94880310
:1008A0001F910F91EF9008950F931F93CF93DF93B4
:1008B000EC01E091E703F091E803058516852B81B3
:1008C0003C812C5E3F4FC90163E470E00E947611C9
:1008D00006171707A0F0C90168E270E00E947611C0
:1008E0006F5F7F4F6017710750F06D817E81878544
:1008F0009089DF91CF911F910F910C946F0380E04D
:10090000DF91CF911F910F910895FC01019000207C
:10091000E9F73197AF01481B590BBC0185E392E021
:100920000C943B028F929F92AF92BF920F931F93B2
:10093000CF93DF93CDB7DEB7A1970FB6F894DEBFA4
:100940000FBECDBF19A2423008F44AE08E010F5D00
:100950001F4F842E912CB12CA12CA50194010E9433
:100960003A11E62FB901CA01EA30F4F4E05DD8018A
:10097000EE938D01232B242B252B79F790E080E03B
:10098000109719F0CD010E948504A1960FB6F89436
:10099000DEBF0FBECDBFDF91CF911F910F91BF90F2
:1009A000AF909F908F900895E95CE1CFCF92DF9256
:1009B000EF92FF92CF93DF936B017C016DE285E3B1
:1009C00092E00E94DB02EC0166277727CB016C19CD
:1009D0007D098E099F094AE00E9492048C0F9D1F99
:1009E000DF91CF91FF90EF90DF90CF900895CF935C
:1009F000DF93BC01990F880B990B97FF0CC00E94E5
:100A0000D604EC0186E092E00E9485048C0F9D1FC5
:100A1000DF91CF9108954AE00E949204F2CFEFEB6C
:100A2000F3E08AE190E09283818385E090E0948313
:100A3000838361E080810C946D018091BD038823E4
:100A400019F060E00C9421012D980895882349F055
:100A50008091BD03882319F061E00C9421012D9A47
:100A600008950C941D054F925F926F927F928F9222
:100A70009F92AF92BF92CF92DF92EF92FF92CF936D
:100A8000DF93CDB7DEB72D970FB6F894DEBF0FBE5C
:100A9000CDBF7C010E94160269837A838B839C837D
:100AA0004B015C011D86B0E0A0E09701AD0125522D
:100AB0003109410951092D833E834F83588797019E
:100AC000AD01275031094109510929873A874B87E0
:100AD0005C87F89461E08091BF030E9421018091BE
:100AE000C2039091C3038230910538F0880F991F9B
:100AF000880F991F05970197F1F760E08091BF0378
:100B00000E94210178943D85311107C08091BE0378
:100B1000823019F481E00E9426058091C0039091F3
:100B2000C103880E991EA11CB11CF8940E941602E4
:100B30002B013C016B0149815A81C41AD50AF12C61
:100B4000E12C8D819E81AF81B885C816D906EA0651
:100B5000FB0634F08091BE03823011F40E941D0523
:100B600029853A854B855C85C216D306E406F506D1
:100B7000B4F078942D960FB6F894DEBF0FBECDBFBB
:100B8000DF91CF91FF90EF90DF90CF90BF90AF902B
:100B90009F908F907F906F905F904F90089531E07D
:100BA0003D87481459046A047B0408F4BFCF91CFF1
:100BB0000E940F0580E891E10E94330560E871E131
:100BC00080E090E00E94480380E392E00E943305B9
:100BD00060E372E080E090E00E94480380E392E0EE
:100BE0000C9433050E940F0580E093E20E943305C8
:100BF00060EC78E080E090E00E94480380E392E0BF
:100C00000C9433051F920F920FB60F9211242F935D
:100C10003F938F939F93AF93BF93809127029091BF
:100C20002802A0912902B0912A023091260223E0E5
:100C3000230F2D3758F50196A11DB11D20932602D3
:100C40008093270290932802A0932902B0932A024E
:100C500080912B0290912C02A0912D02B0912E0236
:100C60000196A11DB11D80932B0290932C02A0939D
:100C70002D02B0932E02BF91AF919F918F913F9122
:100C80002F910F900FBE0F901F90189526E8230FFD
:100C90000296A11DB11DD2CF1F920F920FB60F92D7
:100CA00011242F933F934F935F936F937F938F9371
:100CB0009F93AF93BF93EF93FF9385E392E00E94DE
:100CC000B902FF91EF91BF91AF919F918F917F9169
:100CD0006F915F914F913F912F910F900FBE0F90A9
:100CE0001F9018951F920F920FB60F9211242F93F9
:100CF0008F939F93EF93FF93E0914502F09146020B
:100D00008081E0914B02F0914C0282FD1BC09081EA
:100D100080914E028F5F8F7320914F02821741F0B6
:100D2000E0914E02F0E0EB5CFD4F958F80934E0218
:100D3000FF91EF919F918F912F910F900FBE0F9088
:100D40001F9018958081F4CF1F920F920FB60F92CB
:100D500011242F933F934F935F936F937F938F93C0
:100D60009F93AF93BF93CF93EF93FF93E091D40200
:100D7000F091D502C0818091D602C8238091D7021C
:100D80009091D802019649F08091D7029091D802B3
:100D900001969093D8028093D7028091D20281115C
:100DA0001DC0C1116EC08091D7029091D8028536C6
:100DB000910578F01092DB028091D7029091D802D1
:100DC0009093DE028093DD0281E08093DC028093C9
:100DD000D2021092D8021092D70253C08091D20250
:100DE0008130A9F4CC2309F44CC0E091DC028E0FD1
:100DF0008093DC028091D7029091D802F0E0EE0F50
:100E0000FF1FEE52FD4F9487838782E0E0CF8091F1
:100E1000D202823009F04FC0C11122C0E091DC0241
:100E200081E0E03768F08093DB0283E08093D202B8
:100E3000E091D902F091DA02309759F20995C9CFC1
:100E40008E0F8093DC028091D7029091D802F0E05F
:100E5000EE0FFF1FEE52FD4F9487838781E0B7CFDF
:100E60008091D7029091D8028536910550F083E0A9
:100E70008093D202E091D902F091DA02309709F022
:100E800009958091BE03813021F4C11180E00E9458
:100E90002605FF91EF91CF91BF91AF919F918F91D7
:100EA0007F916F915F914F913F912F910F900FBE66
:100EB0000F901F9018958091D202833011F7C111C5
:100EC000E0CF87CFEF92FF920F931F93CF93DF93E3
:100ED000EC01F62F8A01790190E080E030E0E0E05B
:100EE000DE01AE0FB11D2C91222341F0320F2E9F57
:100EF000800D911D11241C92FE1315C0332399F00F
:100F0000532F5695850F911D632F70E00E94761127
:100F1000DE01A60FB11D3C93D8013C9131110EC0EA
:100F20006C9390E080E0EF5FFE17D0F681E0DF91F8
:100F3000CF911F910F91FF90EF900895D7013C91B1
:100F4000332371F380E0F3CFE5E3F2E01382128202
:100F500088EE93E0A0E0B0E084839583A683B78316
:100F600088EF91E09183808385EC90E0958784877A
:100F700084EC90E09787868780EC90E0918B808B63
:100F800081EC90E0938B828B82EC90E0958B848B4C
:100F900086EC90E0978B868B118E128E138E148EBA
:100FA00082ED92E09093E8038093E70380E00E9453
:100FB0009E011092BD031092BF030895CF93DF935B
:100FC000CDB7DEB7E9970FB6F894DEBF0FBECDBF41
:100FD000789484B5826084BD84B5816084BD85B514
:100FE000826085BD85B5816085BD80916E00816020
:100FF00080936E00109281008091810082608093C6
:1010000081008091810081608093810080918000C7
:101010008160809380008091B10084608093B100F2
:101020008091B00081608093B00080917A008460EC
:1010300080937A0080917A00826080937A00809118
:101040007A00816080937A0080917A008068809332
:101050007A001092C100E0914502F091460212E040
:101060001083E0914102F09142021082E09143022C
:10107000F09144028FEC808310924D02E09149027E
:10108000F0914A0286E08083E0914702F0914802A5
:10109000808180618083E0914702F09148028081E5
:1010A00088608083E0914702F091480280818068E7
:1010B0008083E0914702F091480280818F7D808398
:1010C00088E00E949E011092BD031093B00010931F
:1010D000B10084E68093B3008093B4001092B20014
:1010E0008091D202833011F41092D20284E0809376
:1010F00070009E012F5F3F4F690135E0232E312C98
:101100008091D202833011F00C94AB108091DB02FD
:10111000882309F458C080E48093E6031092C50345
:101120001092C4031092C9031092C8031092C7030F
:101130001092C6031092CC031092CD031092CE03EE
:101140001092CF031092E5031092E4038091E6031E
:1011500086FDCEC1E091E703F091E8032285822F5E
:101160008F7B843009F0BBC08585968586589109B0
:101170008C35910508F0B3C087859089243009F03B
:1011800049C08197489708F0AAC081899289089739
:10119000089708F0A4C081E08093E6038091EB03F8
:1011A0009091EC039093C7038093C6038091EF0363
:1011B0009091F0039093C9038093C8038091E90351
:1011C0009091EA0364C01092E6038091C403909169
:1011D000C5039093EA038093E9038091C80390913B
:1011E000C903B0E0A0E08093EF039093F003A093D5
:1011F000F103B093F2038091C6039091C703B0E06E
:10120000A0E08093EB039093EC03A093ED03B093E5
:10121000EE0384CF825491098F9708F060C043E0B9
:1012200060E28CED91E00E943C04882309F457C0F1
:101230008091CC039091CD034091CE035091CF0388
:10124000242F30E03093C9032093C8039C012E3E25
:1012500067E8360709F583E090E09093C503809333
:10126000C403852F90E09093C7038093C60380E268
:1012700090E09093E5038093E4038AE795E00E9471
:101280008C008091E60380FF33C189E090E0909369
:10129000C5038093C4032CC19095891310C090E0BE
:1012A0009093C7038093C603852F809548130CC085
:1012B00088E090E09093C5038093C403D8CF309327
:1012C000C7032093C603F0CF8AE090E09093C50354
:1012D0008093C4034093C8035093C903C8CFE091DF
:1012E000E703F091E8038285843609F08FC088EC2B
:1012F00091E00E945404882309F488C043E060E12F
:1013000088EC91E00E943C04882309F47FC0B090EF
:10131000CC030B2D1091CD039BE0E92EF12C023074
:1013200090E21907F9F08EE0E82EF12C0A3AEAE58E
:101330001E07C1F0BDE0EB2EF12C0435F2E31F07D0
:1013400089F0AFE0EA2EF12C033021E0120751F0D2
:1013500020E1E22EF12C03323BEC130719F0FCE004
:10136000EF2EF12C43E260E288EC91E00E943C0415
:10137000882309F44BC0B1264091CC035091CD0392
:101380006091CE037091CF03CA01E4E096958795F2
:10139000EA95E1F79093C7038093C603862F90E008
:1013A0009093C9038093C803942F962795278B2D7C
:1013B00082958F708B258F70242F2F70821719F0D4
:1013C00084E08093E6038CE0E816F10449F4809110
:1013D000E60380618093E6031093CB030093CA0376
:1013E000971729F08091E60384608093E60380E3F9
:1013F00090E09093E5038093E403F092C503E092BC
:10140000C4038AE397E00E948C0072C0E091E70376
:10141000F091E8038285803209F0C6C041E06FE0B8
:1014200084EB91E00E943C04882309F4BDC0E09164
:10143000E703F091E803DF01A75BBF4F8D919C911B
:101440000497059708F0B0C08091CC039091CD032C
:10145000A091CE03B091CF039C012F71332730931D
:10146000C7032093C60355E0B695A7959795879532
:101470005A95D1F7492F43709C0133273093C90304
:101480002093C803238534852536344008F084C072
:101490002091F3032F5F2093F303223018F021E013
:1014A0002093E60390FF14C02091E603322F3260B0
:1014B0003093E6033091EF035091F003809583174A
:1014C00019F026602093E6033093C8035093C903B4
:1014D0004150423008F065C086E190E09093C5032A
:1014E0008093C4038FE090E09093E5038093E4033E
:1014F0008091D202833011F41092D2028091C803FD
:101500009091C903209124023091250221153105C3
:1015100009F031C6039709F01EC689E092E00E94E7
:10152000850486E092E00E94850402E310E0809149
:10153000F2019091F301801791070CF402C6C801E3
:101540000E94BE01C8010E94F7040E9416024B01CE
:101550005C0184E6482E512C612C712C0E941602ED
:10156000681979098A099B09683E734081059105CC
:10157000A8F331E0431A51086108710858EE850E4E
:1015800053E0951EA11CB11C411451046104710467
:1015900029F70B5F1F4FCBCF1092F303423009F4B2
:1015A0009BCF84E090E09ACF80EA91E00E945404BF
:1015B000882309F44EC0E091E703F091E8038285A7
:1015C0008A3129F08A3219F0803209F042C090E065
:1015D000BC016150710977FDBC017595679543E0C9
:1015E00080EA91E00E943C04882399F18091CC0329
:1015F0009091CD03A091CE03B091CF039C012F77A2
:1016000033273093C9032093C80337E0B695A795D5
:10161000979587953A95D1F79093C7038093C60322
:10162000E091E703F091E803228530E0C9010197DA
:1016300097FDC901959587959093E5038093E40301
:1016400087E190E09093C5038093C40380EE91E01E
:10165000DACE81E08093340229E733E0309332021E
:1016600020933102109233020E949B00813009F0D6
:1016700066C0412C512C320110E0E091E703F0915B
:10168000E8039285809134028917E0F40E949B0060
:10169000082F0E949B0001110BC0813009F04FC040
:1016A000440C551C661C771C689440F81F5FE5CFFE
:1016B000013009F044C0811142C0440C551C661C25
:1016C000771CF4CF812F90E09093E5038093E4039F
:1016D0004092CC035092CD036092CE037092CF0320
:1016E000842D8F7390E09093C9038093C803920177
:1016F00016E0369527951A95E1F72F713327309329
:10170000C7032093C603920122273071232B31F4A3
:10171000805C9F4F9093C9038093C80380E88093B7
:10172000E60353FE03C088E88093E60381E190E07E
:101730009093C5038093C4038FEC99E064CEE0914D
:10174000E703F091E8038585968588974D9708F023
:1017500046C0878590890C970B9708F040C083E0BE
:10176000809334028CEB91E09093320280933102AB
:10177000109233020E949B00813089F50E949B00E9
:1017800081112DC0412C512C320110E0E091E70372
:10179000F091E803928580913402891708F07CC0AB
:1017A0000E949B00F82E1330B1F00E949B00082F7E
:1017B000133021F40E949B00081311C031E0F31292
:1017C00061C001110CC0440C551C661C771C689448
:1017D00040F81F5FDBCF0E949B00F81631F3E091C9
:1017E000E703F091E80322852C3311F0243099F4BB
:1017F000858596858638910570F0833E910508F4BD
:1018000091C08E58910968EB7BE007E010E08236CA
:10181000910508F48BC0E091E703F091E80382851D
:10182000823209F4E8C0843209F011C184E191E008
:101830000E945404882309F40AC143E060E184E172
:1018400091E00E943C04882309F401C18091CC03FB
:101850009091CD03A091CE03B091CF03492F5A2F81
:101860006B2F77275093C9034093C8039927909310
:10187000C7038093C60380E190E09093E5038093D3
:10188000E403E0C0F110ABCF013009F0A8CF440C65
:10189000551C661C771C9DCF812F90E09093E5032B
:1018A0008093E4034092CC035092CD036092CE0328
:1018B0007092CF03242D30E0852D143200F580E89E
:1018C0008093E6033093C9032093C803852D90E0ED
:1018D0009093C7038093C60360FE03C088E880939B
:1018E000E603153128F08091E60380618093E603DA
:1018F00083E79AE00E948C0082E190E0C8CC90E8F7
:101900009093E60357FE03C098E89093E603309364
:10191000C9032093C8038F7790E09093C703809307
:10192000C603E6CF68E670E106E010E0878590899F
:10193000243061F44D97469708F06DCF81899289E4
:101940000797089708F067CF81E826CC0E946F03BD
:10195000882309F460CF43E06CE180E091E00E94CD
:101960003C04882309F457CF80E88093E6038091F4
:10197000CC039091CD03A091CE03B091CF032C0165
:101980003D01E4E07694679457944794EA95D1F743
:10199000A2015092C9034092C8032C013D01F4E119
:1019A0007694679457944794FA95D1F75092C70369
:1019B0004092C60324E030E060E0742F7F70670F30
:1019C00074E0569547957A95E1F721503109A9F7CA
:1019D00086278F709927AA27BB27892B8A2B8B2BC9
:1019E00019F084E88093E6031093C5030093C403C1
:1019F0008CE190E079CD838594858C3E9C4508F000
:101A000077CD858596850897079708F071CDE35BBC
:101A1000FF4F808191810897079708F069CD81E099
:101A20008093E6038091EB039091EC039093C703BE
:101A30008093C6038091EF039091F0039093C903C4
:101A40008093C8033092C5032092C40351CDE09126
:101A5000E703F091E8031285812F8F7D843419F01C
:101A6000163009F07EC088E291E00E945404882379
:101A700009F477C01630B1F481E08093E6038091D9
:101A8000EB039091EC039093C7038093C60380917E
:101A9000EF039091F0039093C9038093C80385E10D
:101AA00090E0F5CB43E060E288E291E00E943C04E4
:101AB000882309F456C01091CE030091CF03909172
:101AC000CC038091CD039093C6038093C703E0912C
:101AD000E703F091E8038285843651F543E460E141
:101AE00088E291E00E943C048823D9F18091CC03E4
:101AF0009091CD030095101731F09095981719F03B
:101B000094E09093E603982F812F9093C9038093DC
:101B1000C80380E390E09093E5038093E40384E1BD
:101B200090E09093C5038093C4038FE595E06BCC60
:101B3000802F809518130FC0812F90E09093C903D8
:101B40008093C80380E290E09093E5038093E403E0
:101B500083E190E0E6CFC8019093C8038093C90366
:101B6000F1CFE091E703F091E8038285843279F5C3
:101B70008CE391E00E945404882349F143E060E142
:101B80008CE391E00E943C04882309F11091CC037E
:101B90008091CD038095181719F084E08093E603B7
:101BA0008DE692E00E948C00812F90E09093C90313
:101BB0008093C8031092C7031092C60380E190E09F
:101BC0009093E5038093E4038DE190E060CBE09196
:101BD000E703F091E80382858434D1F480E591E055
:101BE0000E9454048823A1F043E060E280E591E084
:101BF0000E943C04882361F080E88093E603E0E2E1
:101C0000F0E0F093E503E093E4038CE190E03FCB58
:101C100084E691E00E945404E091E703F091E80328
:101C20009285882309F455C0943209F052C043E0EC
:101C300060E184E691E00E943C04882309F449C0F5
:101C4000E091E703F091E803DF01AF5ABF4F8D91B8
:101C50009C9102970497E8F580E88093E6039091C1
:101C6000CC034091CD03292F342F542F52955F7010
:101C70004F70A4E036952795AA95E1F72F709F70D5
:101C80008FE0852784278227981719F084E88093AE
:101C9000E60383859485883F914128F48091E6038B
:101CA00082608093E6035093C6031092C70330E12D
:101CB000439FC0011124822B9093C9038093C803D2
:101CC00080E190E09093E5038093E4038AE190E063
:101CD000DECA88E791E00E945404E091E703F091A6
:101CE000E8039285882381F1943271F543E060E145
:101CF00088E791E00E943C04882331F1E091E703FA
:101D0000F091E803EF5AFF4F808191810897079780
:101D1000D8F48091CC039091CD0398279F3FA1F4F4
:101D200090E09093C9038093C80380E190E0909382
:101D3000E5038093E40389E190E09093C5038093E9
:101D4000C40388ED94E05FCBE091E703F091E803F2
:101D50008285803709F059C041E068E08CE891E065
:101D60000E943C04882309F450C08091CC039091D8
:101D7000CD03A091CE03B091CF03892B8A2B8B2B5F
:101D800009F043C041E16FE18CE891E00E943C041E
:101D90008823D9F14090CC035090CD036090CE03BE
:101DA0007090CF034FE461E18CE891E00E943C0425
:101DB000882359F19091CD038091CE0389279827EC
:101DC00089279093C9038093C8034092CC03509213
:101DD000CD036092CE037092CF035092C70340921E
:101DE000C6037092CB036092CA038BE190E090939C
:101DF000C5038093C40388E390E09093E503809348
:101E0000E40380E88093E60373CBA091E703B091ED
:101E1000E8031A968C911A97843108F42AC182E358
:101E2000F60111928A95E9F71A962C911A97225089
:101E3000330B60E043E0842F90E082179307BCF4FB
:101E4000880F991FFD01E80FF91F83859485823360
:101E5000910508F00EC1F601E80FF91F50815F5F90
:101E600050836817190608F4682F4E5FE4CF1EAA46
:101E70001DAA9E012B5C3F4FAE014A5C5F4FC6011D
:101E80000E946207882309F4F4C082E3F6011192EC
:101E90008A95E9F7A091E703B091E8031A962C918F
:101EA0001A972250330B60E044E0842F90E08217B1
:101EB0009307BCF4880F991FFD01E80FF91F838574
:101EC00094858233910508F0D4C0F601E80FF91F1C
:101ED00050815F5F50836817190608F4682F4E5FC2
:101EE000E4CF1CAA1BAA9E012D5C3F4FAE014C5CA7
:101EF0005F4FC6010E946207882309F4BAC0E091CF
:101F0000E703F091E803828586958150990BABA891
:101F10004DA89C0121503109AA2019F0411001C09F
:101F2000C9019093E5038093E4039C01215031099A
:101F300095E0369527959A95E1F729AF411003C0B2
:101F4000AA2009F496C02CA992E3299F40011124EC
:101F50006EA8699E30011124499E20011124A99E7A
:101F60005001112488AFF3E0FFABF12C88AD813232
:101F700008F080E29DA9992309F467C021E030E0D0
:101F80003093C5032093C403E12C84019301A20183
:101F90006FA90E948803882309F46BC024E0F29E95
:101FA000F0011124E452FC4F8091CC039091CD03B9
:101FB000A091CE03B091CF0380839183A283B3839A
:101FC0003FA9305C3FABF39458AD505258AF69AD68
:101FD0006F1560F680ED97E00E948C00E091E703BA
:101FE000F091E8034585568582E3849F9001859FA3
:101FF000300D11243093D1032093D00347855089AD
:10200000849F9001859F300D11243093D30320933A
:10201000D2037092D9036092D8039092DB0380922E
:10202000DA0341145104E1F05092D5034092D403F5
:102030009092D7038092D603A114B10409F458CA30
:10204000B092DB03A092DA0353CAE2E0F0E0F0932F
:10205000C503E093C403E12C85019301A30198CF4C
:102060007092D5036092D403B092D703A092D603A6
:102070003FCAE090E703F090E803F70102850630DD
:1020800008F436CABB24B39425EC3DE94CE151E891
:1020900010E08AE0A82E8B2D90E0BC016E5F7F4F90
:1020A00060177107DCF5660F771FF701E60FF71F62
:1020B00063857485880F991FF701E80FF91F8385E1
:1020C0009485A69ED001A79EB00D1124FC01EE0FB1
:1020D000FF1FEE0FFF1FEE0FFF1FAE17BF07D0F061
:1020E000A89EF001A99EF00D1124CB0163E0880F9A
:1020F000991F6A95E1F7E817F90770F4E2E063E9E0
:1021000071E080E091E00E942A119B01AC012E2732
:10211000B394C1CFE0E0F3CFE1E0F1CF2093CC0363
:102120003093CD034093CE035093CF0320E230E0B1
:102130003093E5032093E4031092C5031092C40387
:10214000D7C921E030E030932502209324029093F8
:10215000F1018093F00180E090E0892B11F40C9460
:1021600080080E94A502882311F40C947D080E9427
:1021700000000C947D082130310569F72091F001B1
:102180003091F1018130910529F120F00297C9F1D8
:10219000C9011DC02F3F3105F4F6C901B1010E94EC
:1021A0008A11009731F0281B390B3093F1012093ED
:1021B000F0010091F0011091F1010B5F1F4F10939E
:1021C000F1010093F001C8010E94BE01C8010E9404
:1021D000F704C1CF233331050CF4BDCFC901B101E0
:1021E0000E948A11009731F0281B390B3093F101BE
:1021F0002093F0010091F0011091F10105501109B7
:10220000DECF3093F3012093F20187E192E00E9448
:10221000850486E092E00E9485046091F20170914D
:10222000F301072E000C880B990B97FF0FC00E943B
:10223000D6041092F1011092F00110922502109232
:10224000240290E080E00E94BE0185CF4AE00E9417
:102250009204EFCFDB018F939F930E945C11BF919B
:10226000AF91A29F800D911DA39F900DB29F900DE5
:1022700011240895A1E21A2EAA1BBB1BFD010DC05B
:10228000AA1FBB1FEE1FFF1FA217B307E407F50726
:1022900020F0A21BB30BE40BF50B661F771F881F02
:1022A000991F1A9469F760957095809590959B0198
:1022B000AC01BD01CF0108950E946711A59F900D4B
:1022C000B49F900DA49F800D911D11240895A29F8D
:1022D000B001B39FC001A39F700D811D1124911DFA
:1022E000B29F700D811D1124911D0895AA1BBB1B67
:1022F00051E107C0AA1FBB1FA617B70710F0A61B06
:10230000B70B881F991F5A95A9F780959095BC0126
:10231000CD01089597FB072E16F4009407D077FDA2
:1023200009D00E94761107FC05D03EF49095819566
:102330009F4F0895709561957F4F0895EE0FFF1F91
:102340000590F491E02D0994F894FFCF060026281B
:10235000236810F4012C06F4012602806E00F205B9
:10236000050026E02070100E022A060E020E020062
:1023700041000000130026801180113002900630C9
:10238000023002006E00D8051D002638081C040E1D
:10239000022A060E020E0200320000001C00262255
:1023A0000B220BEE026608EE02EE02806E000000C9
:1023B0001A00269E0002049E0029029E00070100CA
:1023C0006E000000190026F603BC050802BC0508D3
:1023D00002D401004B0000001B00261F015D033EDC
:1023E000023E021F015D03806E000000170028609E
:1023F000095802B004580258025802002D0000008B
:1024000004002604010C0304011C0704010C030052
:102410006E0000000C0025800DC006B0011005B054
:1024200001B0010082000000080026002380113066
:1024300002900630023002006E00F2057D007F003F
:1024400000000000DB023B026802280399027702C9
:102450008B020D0A005475726E696E67206F6E2EC6
:102460002E2E0053617665642073706565642000CC
:107E0000112484B714BE81FFF0D085E080938100F7
:107E100082E08093C00088E18093C10086E0809377
:107E2000C20080E18093C4008EE0C9D0259A86E02C
:107E300020E33CEF91E0309385002093840096BBD3
:107E4000B09BFECF1D9AA8958150A9F7CC24DD24C4
:107E500088248394B5E0AB2EA1E19A2EF3E0BF2EE7
:107E6000A2D0813461F49FD0082FAFD0023811F036
:107E7000013811F484E001C083E08DD089C08234E0
:107E800011F484E103C0853419F485E0A6D080C0E4
:107E9000853579F488D0E82EFF2485D0082F10E0AE
:107EA000102F00270E291F29000F111F8ED06801E7
:107EB0006FC0863521F484E090D080E0DECF843638
:107EC00009F040C070D06FD0082F6DD080E0C81688
:107ED00080E7D80618F4F601B7BEE895C0E0D1E017
:107EE00062D089930C17E1F7F0E0CF16F0E7DF06D8
:107EF00018F0F601B7BEE89568D007B600FCFDCFD4
:107F0000A601A0E0B1E02C9130E011968C91119780
:107F100090E0982F8827822B932B1296FA010C0160
:107F200087BEE89511244E5F5F4FF1E0A038BF0790
:107F300051F7F601A7BEE89507B600FCFDCF97BE46
:107F4000E89526C08437B1F42ED02DD0F82E2BD052
:107F50003CD0F601EF2C8F010F5F1F4F84911BD097
:107F6000EA94F801C1F70894C11CD11CFA94CF0C13
:107F7000D11C0EC0853739F428D08EE10CD085E9AC
:107F80000AD08FE07ACF813511F488E018D01DD067
:107F900080E101D065CF982F8091C00085FFFCCF94
:107FA0009093C60008958091C00087FFFCCF809118
:107FB000C00084FD01C0A8958091C6000895E0E648
:107FC000F0E098E1908380830895EDDF803219F02E
:107FD00088E0F5DFFFCF84E1DECF1F93182FE3DFCA
:107FE0001150E9F7F2DF1F91089580E0E8DFEE27F6
:047FF000FF270994CA
:027FFE00040479
:00000001FF
